:020000040800F2
:1000000000C30120950300089D0300089F0300081A
:10001000A1030008A3030008A503000800000000D6
:10002000000000000000000000000000D5020008F1
:10003000A90300080000000031030008D53B0008B8
:10004000AF030008AF030008AF030008AF030008C8
:10005000AF030008AF030008AF030008AF030008B8
:10006000AF030008AF030008FF320008AF03000829
:10007000AF030008AF030008AF0300081531000804
:10008000AF030008AF030008AF030008AF03000888
:10009000AF030008AF030008AF030008AF03000878
:1000A000AF030008AF030008AF030008AF03000868
:1000B000AF030008AF030008AF030008AF03000858
:1000C000AF030008AF030008AF030008AF03000848
:1000D000AF030008753D0008A93D0008AF03000804
:1000E000AF030008AF030008AF030008AF03000828
:1000F000AF030008AF030008AF030008AF03000818
:10010000AF030008AF030008AF030008AF03000807
:10011000AF030008AF0300085D3C0008AF03000810
:10012000AF030008AF030008AF030008AF030008E7
:10013000AF030008AF030008AF030008AF030008D7
:10014000AF030008AF030008AF030008AF030008C7
:10015000AF030008AF030008AF030008AF030008B7
:10016000AF030008AF030008AF030008AF030008A7
:10017000AF030008AF030008AF030008AF03000897
:10018000AF030008AF03000800F002F800F092F897
:100190000AA090E8000C82448344AAF10107DA45E2
:1001A00001D100F087F8AFF2090EBAE80F0013F0A2
:1001B000010F18BFFB1A43F001031847F8E90300C9
:1001C00018EA0300103A24BF78C878C1FAD8520759
:1001D00024BF30C830C144BF04680C6070470000C1
:1001E0000023002400250026103A28BF78C1FBD840
:1001F000520728BF30C148BF0B6070476E2900F01E
:10020000D085702901F03F81662909F0A380652916
:1002100009F0A080672909F09D80612909F09C8080
:1002200003681B0A28BF41F08001692900F058814A
:10023000642900F05581752900F052816F2901F081
:10024000CC80782901F00B81E92901F06780E4294D
:1002500001F06480F52901F06180EF2901F0C98087
:10026000F82901F00A810368DB0928BF41F0800109
:10027000632900F0E887732900F0ED87E32901F096
:10028000C183F32901F0C683002070471FB509F030
:1002900054F801F099F904000020002108F0D4FD81
:1002A000401C60600020002108F0B8FDE0601FBD28
:1002B00010B510BD01F002FE1146FFF7E7FF04F094
:1002C0008FFD02F0A5F803B4FFF7F2FF03BC02F0C4
:1002D000A9F800002C4B19680868B0E8F04F80F3CB
:1002E0000988BFF36F8F4FF0000080F311887047CB
:1002F0000000000008480068006880F308884FF09C
:10030000000080F3148862B661B6BFF34F8FBFF36D
:100310006F8F00DF00BF00BF08ED00E0DFF80C00CA
:10032000016841F470010160704700BF88ED00E092
:10033000EFF30980BFF36F8F134B1A681EF0100F95
:1003400008BF20ED108A20E9F04F106009B44FF08B
:10035000500080F31188BFF34F8FBFF36F8F07F00A
:1003600033FA4FF0000080F3118809BC196808685F
:10037000B0E8F04F1EF0100F08BFB0EC108A80F309
:100380000988BFF36F8F7047AC000020EFF3058042
:10039000704700000948804709480047FEE7FEE72C
:1003A000FEE7FEE7FEE7FEE7FEE7FEE7FEE7FEE725
:1003B00004480549054A064B70470000013C000807
:1003C0008901000800A3012000C3012000B301201F
:1003D00000B301207CB51D4616460C00009001D0EC
:1003E0002044401E074B7B442A4669460190304614
:1003F00000F0FFFE05461CB10020694600F00CFF2E
:1004000028467CBD390E00000FB47CB50C0009AA4B
:10041000009001D02044401E084B7B446946019067
:10042000089800F0E6FE05461CB10020694600F081
:10043000F3FE28467CBC5DF814FB0000050E0000AE
:1004400070B5044685690068C10601D5302600E014
:100450002026C00707D070BDD4E90121304690475F
:10046000206A401C20626D1EF6D570BD70B5044632
:1004700085690078C00707D170BDD4E9012120202B
:100480009047206A401C20626D1EF6D570BD70B585
:100490000C460546012A05D02878800600D5EA6971
:1004A000002302E0012305E05B1C934202D2E05CE2
:1004B0000028F9D1A869E618C01AA861286A18446A
:1004C00028622846FFF7BCFF04E0D5E9012114F8B3
:1004D000010B9047B442F8D32846FFF7C7FF70BD21
:1004E0002DE9F0410646002410687529314616A50D
:1004F00010D000F0EBFB002802DA404213A507E021
:1005000031688A0701D512A502E0490704D511A573
:10051000012401E000F0E3FB00210A2206F1240798
:1005200009E0B0FBF2FCB0FBF2F302FB1C00303040
:1005300078541846491C0028F3D123462A463046F1
:10054000BDE8F04100F0D4BB000000002D00000029
:100550002B000000200000002DE9F05F89460446D2
:100560004FF0000ADFF874B1FB44C0F820A0204629
:10057000E1688847002874D0252806D0D4E90121F5
:100580009047206A401C2062F1E700265F46204623
:10059000E16888472028054607DB312D05D2781908
:1005A00010F8200C08B10643F1E7B00701D526F09A
:1005B0000406C4F81CA00027C4F818A02A2D09D0EE
:1005C000284603F054FE38B304EB8708303DC8F8E2
:1005D000185019E059F8041B204604EB870291617A
:1005E000E1688847012F054618D1E069002820DA24
:1005F00026F020061DE0D8F8180000EB800005EB7F
:1006000040003038C8F818002046E16888470546A1
:1006100003F02DFE0028EED1012F0AD02E2D08D197
:100620002046E16888477F1C0546022F46F02006D9
:10063000C4DBA069002803DA404246F00106A0614D
:10064000F00701D026F010066C2D0BD0682D09D0D4
:100650004C2D39D06A2D35D0742D35D07A2D33D02C
:1006600016E038E0E1682F4620468847B842054644
:1006700009D16C2F26D04FF48060E16806432046F4
:100680008847054604E06C2F1AD04FF4807006436B
:100690000DB3A5F14100192802D8203546F40066B3
:1006A0004A462946204626604E46FFF7A7FD80B100
:1006B00001280BD0F61D26F0070000F1080956E7C7
:1006C0004020E4E78020D8E70020D6E706F10409BF
:1006D0004DE7284652E7206ABDE8F09FBCE30300DF
:1006E0000FB400B58DB010A9099000910B904FF098
:1006F000FF300A9000200C90064878440690064887
:1007000078446A4607900F9909A800F0DBFE0DB007
:100710005DF814FBE70D0000FF0D00002DE9FF5F01
:100720001D464FF0FF3B91464FF000085F46D5E96C
:100730000146A96901987F1C8847296A8246884733
:100740000028F6D1BAF1FF3F0CD0002E24F4C0648B
:1007500019DD600614D5BAF12B0F09D0BAF12D0FAF
:100760000ED103E0584604B0BDE8F09F44F4806425
:10077000A96901987F1C8847761E8246002E02DDFB
:10078000BAF1300F03D0B9F1000F26D032E0A969D9
:10079000761E01987F1C44F400748847002E824620
:1007A00005DDBAF1780F06D0BAF1580F03D0B9F1D0
:1007B000000F10D01EE0B9F1000F02D0B9F1100FF8
:1007C00018D1A969761E01987F1C24F4007488470B
:1007D0008246102002E0082000E00A20814609E05D
:1007E000A96908FB0908761E01987F1C44F400746F
:1007F00088478246002E05DD4946504600F04EFEF1
:100800000028EDDAE96901988847A00502D46FF065
:100810000100A8E7E00725D1600613D5600502D5E1
:10082000C8F1000000E0404629680A1D2A600968F6
:10083000220501D5087015E0220701D5088011E0D6
:1008400008600FE02868011D29600068210502D5B5
:1008500080F8008006E0210702D5A0F8008001E0C2
:10086000C0F8008038467EE72DE9FF5F4FF00008B2
:100870009946144646469169D2E901A7DDF838B099
:1008800001988847054659EA0B0005D009E0A1699F
:100890000198761C88470546216A28468847002823
:1008A000F5D1681C03D05FEACA7005D015E04FF09F
:1008B000FF3004B0BDE8F09F2068011D2160D0F832
:1008C00000800AE05FEACA7001D108F8015BA16903
:1008D000761C01987F1E88470546002F1ADD681C8C
:1008E00018D0B9F1000F0DD0E81705EBD060421118
:1008F00020F01F0059F822102A1A012090400142CE
:10090000E0D107E0BBF1000FDCD12846216A88471F
:100910000028D7D0E16901988847BBF1000F07D1C3
:10092000002E05DD5FEACA7002D1002188F80010B0
:10093000A068B84203DDBBF1000F03D017B16FF020
:100940000100B6E73046B4E730B505460B462A4607
:1009500013F8014B12F8010B08B1A042F8D01CB1FA
:10096000002802D06D1CF1E7284630BD40EA0103A3
:1009700010B59B070FD1042A0DD310C808C9121F48
:100980009C42F8D020BA19BA884201D9012010BD82
:100990004FF0FF3010BD1AB1D30703D0521C07E04F
:1009A000002010BD10F8013B11F8014B1B1B07D1B3
:1009B00010F8013B11F8014B1B1B01D1921EF1D124
:1009C000184610BD40EA0103024630B59B0710D11E
:1009D0004FF0013400E008C208C91D1B9D4315EA11
:1009E000C41FF8D013F0FF0102F8011B0DD01B0A41
:1009F000F8E711F8013B002B02F8013B05D011F894
:100A0000013B002B02F8013BF3D130BD10B5431C74
:100A100002E010F8011B71B18107FAD14FF00132E9
:100A200002C88C1A8C4314EAC211F9D0C01A0A0603
:100A300003D0C01E10BDC01A10BD0A0401D0801E14
:100A400010BD0902FCD0401E10BD032A40F23080C8
:100A500010F0030C00F0158011F8013BBCF1020FFF
:100A6000624498BF11F801CB00F8013B38BF11F880
:100A7000013BA2F1040298BF00F801CB38BF00F897
:100A8000013B11F0030300F02580083AC0F0088014
:100A900051F8043B083A51F804CBA0E80810F5E7F8
:100AA000121D5CBF51F8043B40F8043BAFF30080DB
:100AB000D20724BF11F8013B11F801CB48BF11F850
:100AC000012B24BF00F8013B00F801CB48BF00F820
:100AD000012B704710B5203AC0F00B80B1E81850D8
:100AE000203AA0E81850B1E81850A0E81850BFF418
:100AF000F5AF5FEA027C24BFB1E81850A0E81850B7
:100B000044BF18C918C0BDE810405FEA827C24BF0A
:100B100051F8043B40F8043B08BF7047D20728BF98
:100B200031F8023B48BF11F8012B28BF20F8023BE7
:100B300048BF00F8012B704702F0FF0343EA03228D
:100B400042EA024200F002B84FF000020429C0F06D
:100B5000128010F0030C00F01B80CCF1040CBCF1EF
:100B6000020F18BF00F8012BA8BF20F8022BA1EB41
:100B70000C0100F00DB85FEAC17C24BF00F8012B26
:100B800000F8012B48BF00F8012B70474FF000021E
:100B900000B5134694469646203922BFA0E80C5073
:100BA000A0E80C50B1F12001BFF4F7AF090728BF4E
:100BB000A0E80C5048BF0CC05DF804EB890028BFCA
:100BC00040F8042B08BF704748BF20F8022B11F0F3
:100BD000804F18BF00F8012B704710B5044610F085
:100BE000030F08BF11F0030F40F015804FF0013ED6
:100BF000121FC0F20E8051F8043BA3EB0E0C2CEA3E
:100C0000030C1CEACE1C08BF40F8043BF0D0A1F155
:100C1000040102F10402521E08DB11F8013B002B13
:100C200000F8013BF7D11146FFF78EFF204610BDBB
:100C30004FF0013C50F8042B51F8043B9A4221D16B
:100C4000A2EB0C03934313EACC1317D150F8042BF7
:100C500051F8043B9A4215D1A2EB0C03934313EADB
:100C6000CC130BD150F8042B51F8043B9A4209D114
:100C7000A2EB0C03934313EACC13DBD04FF000003C
:100C8000704700BFD01A01BAB1FA81F101F0180122
:100C900022FA01F0CB40C1F12001DBB2C0B2C01A90
:100CA0002CFA01F3D11A914311EAC311E6D170472E
:100CB00070477047704710B500F08AFC006810BD9F
:100CC00010B5044600F084FC046010BD09684A05B4
:100CD00001D540B27047C905FCD500B2704709681C
:100CE0004A0501D5C0B27047C905FCD580B270472E
:100CF0002DE9F0470D4699469246044600F1240836
:100D00000168880604D5E06921F01001216000E047
:100D10000120A84201DD471B00E00027A1697A19E4
:100D200002EB0900081AA0612078C00602D4204610
:100D3000FFF786FB002608E0D4E901211AF8060037
:100D40009047206A401C761C20624E45F4DB2078D8
:100D5000C0060AD52046FFF773FB06E0D4E901215F
:100D600030209047206A401C2062381EA7F10107FE
:100D7000F4DC07E0D4E9012118F805009047206A67
:100D8000401C2062281EA5F10105F3DC2046FFF778
:100D90006DFB2078000602D50220BDE8F087012017
:100DA000FBE711680268006A530501D508700AE084
:100DB000D30501D5088006E0130603D5C217C1E9A3
:100DC000000200E008600120704770472DE9FF4FE6
:100DD0000C461E464FF0FF378BB0D2E90001DDF81C
:100DE00060800A908A46C1F30A5505B93D46002144
:100DF00008464FF00000BAF1000F00F4400005DA99
:100E000000EB80004FF4400101EA50004FEA905996
:100E1000B9F1010F00DDB9460A9850EA4A000ED038
:100E200044F61050A5F2FF3545432F14B8F1000FDA
:100E30001ED07542291E1EDDC9F100021CE0B8F16A
:100E4000010F4FF0000001D0302103E0F24305E034
:100E50002154401CB042FBDB3046002200212154CB
:100E60000B99C1F80880C1E900200FB0BDE8F08FF0
:100E7000BD1B6D1CDEE74A4600DA694206A800F099
:100E800087FF06AB93E8070003AB83E807005046F3
:100E90000A9901F00BFD8DE80700A0F500501F38FE
:100EA00000900398002D0ADD42F21F014A460844D3
:100EB000002303A90390684601F0B6FF09E0A0F5FE
:100EC00000504A461F38002303A90390684601F0EA
:100ED000D5FF8DE807000004000C03D04FF0FF3071
:100EE000410800E01046B8F1000F03D00022009244
:100EF00015461EE0751E05D400F06EFB30326255BB
:100F00006D1EF9D5B3460122084302D000227F1C92
:100F100004E02078302801D100227F1E002A0997A2
:100F200084D01DE0112D07DA00F056FB30326255F7
:100F30006D1C50EA0102F5D1084302D00098C8B1F7
:100F40000EE00021681E05E0235C625C63542254BD
:100F5000401E491C8142F7DBAB46A81B401E09908E
:100F6000002004F80B000B98099AC0F80880C0E92B
:100F7000002B7AE711264FF0000857E72DE9F04FD4
:100F800088460446D21D22F0070191B0D1E9000144
:100F9000CDE90A0103F01DF802460B98C00F01D0FD
:100FA0002D2007E02068810701D52B2002E02021B9
:100FB00001EAC000032A099001D0072A05DB034695
:100FC0004146204600F0D4FC0BE12078800601D594
:100FD000E06900E00620B8F1650F814606D0B8F15F
:100FE000660F18D0B8F1670F70D131E00020B9F169
:100FF000110F009001DB112301E009F101030AAA9E
:1010000001A90CA8FFF7E2FEDDE90C70002609F14A
:101010000105834647E001204B4600904FF0004712
:101020000AAA01A90CA8FFF7D1FEDDE90DB00C99C1
:101030005D46002610B909F101000D18B9EB050055
:1010400003D4C0F1FF3609F10105A5EB09002BE03F
:10105000B9F1010F01DA4FF001090020B9F1110FC8
:101060000090484601DD112300E003460AAA01A9C9
:101070000CA8FFF7ABFEDDE90C704D460026834659
:10108000207800070AD4AB4500DA5D4601A8012D9F
:1010900004DD411911F8011C302907D04F4502DA4F
:1010A00017F1040F04DA012082460FE06D1EEEE70F
:1010B000002F02DCED1B3E4403E0781CA84200DD5B
:1010C0007D1CB81B00F1010A4FF000472078000793
:1010D00003D4AA4501DB4FF0FF3A0021B7F1004FDE
:1010E0000DF143088DF8431024D002202B23002F4C
:1010F00001DA7F422D230A21021EA0F1010000DC4B
:101100005FB197FBF1FC97FBF1F201FB1C7C1746EA
:101110000CF1300C08F801CDEEE7A8F101000370E6
:101120002188090501D5452100E06521A0F10108CC
:1011300000F8011C09980FA9A1EB0807FF1D00B1D9
:101140000120411901EBEA70A1693844081A401ED8
:10115000A0612078C00602D42046FFF771F90998F3
:1011600028B1D4E901219047206A401C20622078F0
:10117000C00622D52046FFF763F91EE0002E04DBEF
:10118000B34502DD01A8805D00E03020D4E90121F3
:101190009047206A401C2062761CAAF101005FEA99
:1011A000000A0AD100F010FAC0680168405CD4E976
:1011B00001219047206A401C2062281EA5F10105EC
:1011C000DCDC07E0D4E9012118F8010B9047206A24
:1011D000401C2062381EA7F10107F3DC2046FFF710
:1011E00045F9032011B041E601694A1C0261087803
:1011F000704700B58FB0CDE9013100210591054957
:101200007944CDE9031011466846FFF7A5F90FB000
:1012100000BD0000E5FFFFFF0A6802F8010B0A604D
:101220007047D1E900239A4202D2531C0B60107020
:10123000704710B5436913B1AFF3008001E0FFF7C9
:1012400026F9012010BD127800F124010A70002255
:101250004A700122EDE711684FF0FF32E9E7000024
:101260002DE9FF5F15468A460446DFF8AC80F84456
:101270000027D8E900103E46CDE9001010E03AF80A
:1012800016106A4602A800F0F5FD411C07D021782F
:10129000890603D5E269391891420DD80744761CB6
:1012A0002078800602D5E069B84205DDAE42E6DB73
:1012B0003AF816000028E2D1A069C01BA0612046C0
:1012C000FFF7BEF8D8E90010CDE90010002017E0C4
:1012D0003AF818106A4602A800F0CCFDB0F1FF3FC2
:1012E00081460BD000250DF1080B05E0D4E9012162
:1012F0001BF8050090476D1C4D45F7D308F1010020
:10130000B0428046E4DB206A384420622046FFF782
:10131000ADF8BDE8FF9F0000CAD603002DE9F041FB
:101320008046D21D22F007020025D2E90002F529ED
:1013300015A614D0011E72F1000106DA0023D0EBCD
:10134000030063EB020211A608E0D8F800108B0737
:1013500001D50FA602E0490701D50EA601251146C9
:10136000002408F1240704E000F036F930323A5541
:10137000641C50EA0102F7D12B4632462146404612
:10138000BDE8F041FFF7B4BC000000002D000000F4
:101390002B0000002000000030B4002100F12404E4
:1013A00008E002F00705D208303542EA4372DB0854
:1013B0006554491C52EA0305F3D10468002310A2C6
:1013C000250707D5A40600D421B1C46901230DA2C5
:1013D000641EC46130BCFFF78BBC10B504462146C7
:1013E0001068FFF77CFC02462046BDE81040002351
:1013F000D2E7D21D22F00701D1E90023CCE700009B
:101400000000000030000000F0B40D46018809051E
:1014100002D5214C7C4402E01F4C7C440E34002158
:1014200000F1240608E002F00F071209E75D42EA26
:1014300003721B097754491C52EA0307F3D102785F
:101440000023120704D5702D06D009B102231134F0
:101450002246F0BCFFF74CBC01231034F8E770B50E
:1014600004460D4621461068FFF739FC024629461E
:101470002046BDE870400023C6E7D21D22F00703D6
:10148000D3E90023C0E70368126843F02003036038
:101490000823C3610023B7E72CD503003A2800D204
:1014A000303820F02002412A01D3A2F137008842CF
:1014B00001D34FF0FF307047026811441378016088
:1014C00018467047D160054979445161044979440F
:1014D000116200211161114600F0A0BAEDFFFFFF7B
:1014E00091010000426842B1016811F8013B23B14B
:1014F000521EC0E90012184670470121C160881EC3
:10150000704742685AB1C368016843B983688B4227
:1015100005D0491E521CC0E90012002070474FF050
:10152000FF3070470FB4002300B589B00CA90091BB
:101530000B99CB60214B7B440693214B7B44079353
:1015400004236FF00042CDE901321E4A7A446B4613
:1015500008920246002007F061FF09B05DF814FB15
:1015600070B506464FF0FF3015460C46324686B041
:101570000091CDE9010169460020049004A8FFF71D
:10158000D1FF02460498211825B108B1084600E0B1
:1015900020462860049800280DD0002A02DD00981B
:1015A000884208D03246081B69460094CDE9010400
:1015B00004A8FFF7B7FF06B070BD0000ABFFFFFF48
:1015C000C3FFFFFF1301000000487047BCA20120C9
:1015D000004870479CA2012030B5B0F10A024FEAE2
:1015E000900E71F100034EEA817EB0EB0E0061EBCC
:1015F00091014FEA101E4EEA017E10EB0E0041EB06
:1016000011114FEA102E4EEA016E10EB0E0041EB65
:1016100011214FEA104E4EEA014E10EB0E0041EB45
:101620001141401841F100014FEAD00040EA4170F9
:101630004FEAD10110EB80054FEA810444EA90742F
:1016400044EB01046D1944EB0404521BA3414FF019
:10165000000348BF0A3200D530BD401C41F10001F3
:1016600030BD10B5044600F04FFC0068005D00F08E
:10167000010010BD2DE9F04F04460D46D21D22F0A9
:10168000070089B0D0E900974846394602F0A1FC2E
:101690000246F80F01D02D2307E02068810701D50D
:1016A0002B2302E0202101EAC0038DF820300BB18A
:1016B000012000E00020032A824601D0072A04DB33
:1016C0002946204600F054F93FE12078800601D4F5
:1016D0000D2500E0E569C7F30A560D2D49DA002112
:1016E0004FEA175B08464FF00000002F00F440005F
:1016F00007DA00EB80004FF4400100EBD07001EA04
:1017000060008115012901DD4FF0FF3100224FEA11
:10171000850CBCF1180F06D31346ACF118004FF03E
:101720008052C24003E04FF4801323FA0CF30CF113
:101730000C0CBCF1200F04D3ACF1200C09FA0CF016
:1017400001E007FA0CF000294FF0004801DD18B95C
:101750000FE00ED140450CD319EB02095F4121B9CE
:10176000404502D19F4329EA0209BBEB175F00D035
:10177000761C2088000502D57B48784402E07A4830
:101780007844193808AA302302F80A30037C0AF199
:101790000101002E0AF1020A53546A4602DC4FF09E
:1017A000300101E04FF031014FF001088DF80010D9
:1017B00002D0A6F2FF3603E059EA470100D06B4E93
:1017C000002D02DC2178090704D54FF002082E21F4
:1017D0008DF80110C44600210BE0C7F303433F011D
:1017E000C35C491C6D1E02F80830052908F1010888
:1017F00001DA002DF1DC00210CE000EB1973491C2B
:101800001B786D1E082902F808304FEA091908F103
:10181000010801DA002DF0DC21688B0602D516E004
:10182000A8F10108E04505DD02EB080313F8013CCF
:10183000302BF5D0B8F1000F09DD02EB080313F8E7
:10184000013C2E2B03D1090701D4A8F10108002D7A
:1018500005DD3E2102F808106D1E08F10108407CEC
:10186000002E02F8080008F1010804DA2D20764263
:1018700002F8080002E02B2002F808000A214FF4C9
:101880007A70864208F101080BDB96FBF0F33033E7
:1018900002F8083096FBF0F308F1010800FB13662C
:1018A00001E0642E0CDB642096FBF0F3303302F889
:1018B000083096FBF0F308F1010800FB136601E025
:1018C0000A2E06DB96FBF1F0303002F8080008F132
:1018D000010896FBF1F001FB1060303002F80800BF
:1018E000A16908F1010808EB050202EB0A00081AD9
:1018F000A0612078C00602D42046FEF7A1FD216A2F
:1019000008AE01EB0A00206204E0D4E9012116F8D8
:10191000010B9047BAF1010AF7D22078C00602D530
:101920002046FEF78DFD6E4609E016F8010B3E28B5
:101930000FD0D4E901219047206A401C2062B8F101
:101940000108F2D22046FEF791FD09B00320BDE860
:10195000F08F206A2844206203E0D4E9012130207E
:1019600090476D1EEBD3F8E701D2030002FCFFFFA6
:101970002DE9F0411F46044603260168072A01F4B9
:10198000006004DB08B116A505E016A503E008B168
:1019900015A500E015A521F010002060A069C01E6B
:1019A000A0610FB1401EA0612046FEF749FD4FB176
:1019B000D4E9012138469047206A401C2062C01CAF
:1019C000206206E0206AFAE7D4E9012115F8010B4C
:1019D0009047761EF8D22046FEF748FDBDE8F0811C
:1019E0004E414E006E616E00494E4600696E6600C3
:1019F00010B5436913B1AFF3008001E0FFF730FC8D
:101A0000012010BD128800F1240182840022C284CA
:101A10000122EDE711684FF0FF32E9E72DE9F34FBE
:101A20004FF0000A0C4656468DB001200C9001F193
:101A30000C000B9062690B9801219047051E2DD078
:101A4000252D2CD0216A8847C0B162690B980121ED
:101A50009047216A88470028F7D16269411E0B9898
:101A6000904700E0761CA1690D988847216A884755
:101A70000028F7D1E1690D988847DBE7A1690D9847
:101A80008847A842074601D1761CD3E7E1690D9843
:101A900088477F1C02D1BAF1000F6FD06CE16269F8
:101AA0000B9800273D46394690472A2804D16269A1
:101AB0000B98012190470125DFF8D08262690B98CD
:101AC00001219047A0F130010A290AD24745E5DCFF
:101AD00007EB870100EB4107303FDFD445F01005ED
:101AE000ECE7E90601D46FF000476C280AD04C28D7
:101AF00014D0682815D06A280DD074281CD07A28F4
:101B00001AD01DE062690B98012190476C2802D021
:101B100045F0040514E045F002050DE045F0200510
:101B20000AE062690B9801219047682802D045F0CD
:101B3000080505E045F4006562690B9801219047AE
:101B4000C4E9015765283DD019DC58287AD00CDC4F
:101B5000452837D004DC252826D041289ED131E005
:101B600046282FD0472899D12CE05B2877D06128D0
:101B700028D063287CD0642823D15AE0F7E06F286E
:101B800048D008DC66281DD067281BD0692821D0E2
:101B90006E2816D127E0702845D0732868D07528A4
:101BA00047D078280DD14DE0A1690D9888472528A8
:101BB00005463FF469AFE1690D9888476D1C3FF415
:101BC0006AAFD9E00D9923466A466FF0010007F02D
:101BD00025FCC6E045F0400023464FF0000260605F
:101BE000A80736D43EE0E8077FF447AF2068011D20
:101BF00021600068290501D506701BE7290701D57A
:101C0000068017E7A90703D5F117C0E9006111E7BE
:101C100006600FE745F0400023464FF00802606081
:101C2000A80716D41EE040F60E0125EA0100606008
:101C300016E045F0400023464FF00A026060A80716
:101C400007D40FE045F040006060A80708D52346A0
:101C500010220D996FF00100AFF3008081E007E0E2
:101C6000102223460D996FF00100FEF757FD78E032
:101C70004FF0000963284F46C8464B46CB4602D07A
:101C80005B2807D039E02079C00601D40120A0608C
:101C9000012732E06269D4F80CB00B98012190471B
:101CA0005E2807D14FF0010949466269D4F80CB0AB
:101CB0000B989047216939B900210A4603AB43F8D4
:101CC0002120491C0829FADBD8B3216949B308F15E
:101CD000010862690B98012190475D28F4D1B9F1A0
:101CE000000F09D0002003A951F82020D24341F869
:101CF0002020401C0828F7DB03AB2069002820794E
:101D00004FEA40701ED05B462246CDF80080CDE9F8
:101D100001970D9900286FF0010020DAAFF30080E1
:101D20001FE0C11703AA00EBD1614B1121F01F0185
:101D300002EB8302411A13680120884003431360B9
:101D4000C7E719E00D99224600286FF001000097BF
:101D500002DAAFF3008004E0FEF786FD01E0AFF3A6
:101D6000008000280ADA401C06D10C9820B14FF000
:101D7000FF300FB0BDE8F08F5046FAE7E90701D118
:101D80000AF1010A064400200C9053E6CCCCCC0C9E
:101D90002DE9F047814616468AB0354878440DC88B
:101DA0008DE80D0032487844801C03AC0DC884E8EF
:101DB0000D0041F69B300844372190FBF1F290FB77
:101DC000F1F5A5F1800501FB12041B3C02D564422C
:101DD000012000E00020DFF898A080460027FA44A8
:101DE000AAF1BE0A0EE0E0070AD03246684607EBC9
:101DF000470101230AEB810101F040F88DE807005B
:101E000064107F1C002CEED1194F7F44AE3F19E0C7
:101E1000E80715D007EB04100DF1180A90E80E0042
:101E20008AE80E00C068F04201D198190890324645
:101E3000012306A903A801F021F803AB83E80700FA
:101E40006D10641C002DE3D14FF00103324669464A
:101E5000B8F1000F03A802D000F0E6FF01E001F0A6
:101E60000DF8C9E90001C9F808200AB0BDE8F087FB
:101E700070CC030070B516460C46054600F044F8D9
:101E8000036893F80101012806D0FF2C0FD8185DD4
:101E900068B101202C7070BDD3F80701324621468D
:101EA00003F2071303442846BDE8704018474FF07B
:101EB000FF3070BD004870479CA201207546FFF7B7
:101EC000F9FFAE4605006946534620F007008546F7
:101ED00018B020B5FEF76CFABDE820404FF00006C0
:101EE0004FF000074FF000084FF0000B21F0070102
:101EF000AC46ACE8C009ACE8C009ACE8C009ACE845
:101F0000C0098D467047000010B5FFF75DFB001D4E
:101F100010BD00BF356F00002DE9FF4F06468BB0A6
:101F20000878FF2806D0491C2D2805D000244FF042
:101F3000000908E000200CE00124F8E709EB890320
:101F4000491C00EB43090878FF28F7D114B1C9F107
:101F500000008146107800252C46AA4629462D28E7
:101F600001D02B2804D1521C2D2813D000208246EA
:101F70008B461078FF280FD04FF0000C0A21521C1E
:101F8000A5FB017804FB018105FB0C11C5194BEB86
:101F90000104EEE70120EAE7002108464FF00000C7
:101FA000BAF1000F02D000EB80004008C0F3815767
:101FB000012F01DD4FF0FF370E9955EA040009EBC0
:101FC00001080BD04FF0020918F5FA7F16DA4FEA34
:101FD000CA70002F706008DD012007E04FEACA7068
:101FE000C6E900B00FB0BDE8F08F00203060FFF709
:101FF000EFFAC0F800901821084616E0B8F5FA7F0D
:1020000018DD002F02DAF748784401E0F6487844FA
:10201000D0E90010C6E9001040EACA707060FFF70E
:10202000D7FAC0F80090142108460FB0BDE8F04F71
:1020300007F08DB9002108464FF00000B8F100010B
:10204000099002DAC7F1000200E03A4601DAC8F16D
:10205000000106A8FFF79CFE06AB93E8070003AB60
:1020600083E8070044F23E005BEA04010090584612
:1020700004D144F21E012C465D460091210C090456
:10208000014306D10099240444EA15442D04103973
:10209000009104F07F41014306D10099240244EAF3
:1020A00015642D020839009104F07041014306D1F6
:1020B0000099240144EA15742D01091F009104F0D0
:1020C0004041014306D10099A40044EA9574AD0053
:1020D000891E009104F00041084304D100986D1955
:1020E0006441401E00904FF001033A466846B8F143
:1020F000000FCDE9014503A902DD00F0D4FE01E0A7
:1021000000F0A7FEBAF1000F04460D4601D084F09E
:102110000044002108464FF00000099940F2FF7783
:10212000484010F00C0F07D124F00040284303D0A2
:10213000C4F30A50B84212D1FFF74AFAC0F800902F
:10214000C4F30A50B8420AD1A8487844D0E9001034
:10215000C6E9001004F000410843706042E7C6E998
:1021600000543FE72DE9FF4F1F464FF0000A4FF0A4
:10217000FF38454691B0D7E90146CDF83CA0FFF7BE
:1021800023FAC0680168405C1090B96912986D1C10
:102190008847396A814688470028F6D1B9F1FF3F60
:1021A0000AD0002E24F4D06411DDB9F12B0F08D031
:1021B000B9F12D0F0BD102E0404615B013E744F4FE
:1021C0008064B96912986D1C8847761E8146600547
:1021D00004A901D52D2000E02B20002E01F1010BD8
:1021E0000DF130088DF810003FDDB9F1690F08D00E
:1021F000B9F1490F05D0B9F16E0F02D0B9F14E0F08
:102200001CD13B4601A8009580E85002DDE912127E
:102210006FF0020007F006F9C11CCED10EE0B969DB
:1022200012986D1C884781461398761E44F40074FA
:1022300005600F98401C002E0F9016DDB9F1300F8D
:10224000EDD0B9F1780F02D0B9F1580F0DD10F9838
:1022500001280AD13B46CDE90054DDE91212001FE6
:10226000029607F0DDF8C11CA7D1109989453ED12F
:1022700044F0800406E01399681CAAF1010A44F4B2
:1022800000740860B9696D1C1298761E8847302862
:102290008146F0D02BE01099894505D1200603D462
:1022A000761E44F0800418E0484601F0E0FF08B3D1
:1022B000761E0DF123018B4544F4007408D2A9F178
:1022C00030000BF8010B200607D5AAF1010003E04E
:1022D000200602D40AF101008246A00502D5139916
:1022E000681C0860B96912986D1C88478146002EE9
:1022F000D1DC53E0002E51DDB9F1650F02D0B9F108
:10230000450F4BD1A00549D5B9696D1C1298761EB1
:1023100024F440748847002E81460CDD2B2804D01D
:10232000B9F12D0F07D144F48074B96912986D1C6E
:102330008847761E8146E00501D52D2100E02B213E
:1023400008F8011BCDF8008021E0761E0DF139015F
:10235000884544F400740CD2A9F1300010F0FF005D
:1023600088F8000002D10099884509D908F10108D0
:1023700006E0E00501D51E4801E042F20F708246FA
:10238000B96912986D1C8847814613980560002E24
:1023900004DD484601F06BFF0028D6D1F969129898
:1023A0008847FF2053468BF8000088F80000002083
:1023B0000A900B9004AA0CA90AA8FFF7ADFDA0058E
:1023C00002D46FF00100F8E614F0240F12D0E007F9
:1023D0001CD13868DDE90A12031D3B600068C0E9C2
:1023E000001213E0D0CB0300C2CB030086CA030067
:1023F000F1D8FFFF0AA9684601F026FFE00705D1E2
:102400003868009A011D3960006802602846D4E6E9
:1024100010B50446AFF300802046BDE81040FDF73C
:1024200052BF000001491820ABBEFEE726000200A3
:102430002DE9FF4F1F464FF03C0987B04FF0004297
:10244000DDE9141001F10108DDF858A002EA40505E
:102450000390002005908346054604460490B96920
:10246000461E08988847AAF1010A0290BAF1000FA7
:102470003BDD02982E2815D01021FFF70FF8002819
:102480002EDB4FF0010B0599014317D0B9F1000F76
:102490000BDB4A46C11700F0F6F905430C43A9F1DE
:1024A000040905E0012004900BE008B145F00105A6
:1024B00001200590049820B9361D02E0049800B16F
:1024C000361FB969089808F101088847BBF1000F69
:1024D000AAF1010A0290C9D00999C1F80080C5E7A4
:1024E0000298702808D0502806D0F96908988847C3
:1024F000BBF1000F14D04FE0002002900120BBF18F
:10250000000F049009D0B969089808F101088847BC
:10251000AAF10109B9F1000F07DCF96908988847A9
:102520006FF001000BB0BDE8F08F2B2804D02D28F0
:102530000CD14FF0FF300490B969089808F10108F8
:102540008847A9F10109B9F1000FE6DD411CE4D08B
:102550000A21FEF7A3FF0028DFDB029908F101083A
:1025600001EB810100EB41000290B96908988847AE
:102570000A21FEF793FF099AA9F10109B9F1000FA9
:10258000C2F8008001DD0028E7DAF9690898884779
:102590000499029800FB016655EA040004D004F097
:1025A0004041090002D006E0039898E0A40044EA04
:1025B0009574AD00B61E04F00041080002D16D19FB
:1025C0006441761E159810F0240F03D04FF00B09CC
:1025D0005C4803E04FF028096FF07D0082465645C5
:1025E00007DAAAEB06018944B9F1410F01DD4FF08A
:1025F000410901200021A9F1010200F044F902463D
:1026000028400B462140084301D0012100E0002171
:10261000501E029143F1FF3128402140084301D070
:10262000012000E000200299834651EA0B014FD0BF
:10263000002108464FF00000039900F4400039B132
:1026400000EB80004FF4400100EBD07001EA600025
:102650008015012802DD4FF0FF3000E013D0401C50
:1026600036D0029860B3BBF1000F0CD14A4601206E
:10267000002100F008F928402140084301D0012042
:1026800000E00020E0B101204A46002100F0FBF804
:10269000034640190A4661412D1A8C4111D3B9F104
:1026A000400F09DD159810F0240F02D0AAF134066E
:1026B00003E0AAF1170600E0761C00254FF0004465
:1026C00006E05B1E42F1FF3220EA030521EA020424
:1026D000CAF10100B04206DA1B4903980843019091
:1026E000002000900EE0039AC4F3D321E80A0A43C5
:1026F000164940EA44500A433146CDE90002684693
:1027000001F0ABFD159810F0240F0BD01598C00701
:1027100015D13868DDE90012031D3B600068C0E98F
:1027200000120CE002A8694601F08EFD1598C00762
:1027300005D13868029A011D396000680260404680
:10274000F0E6000002FCFFFF0000F07F0000F03F19
:102750002DE9FF4F92461D4685B04FF00041DDE95F
:10276000124BDDE914727F1E01EA4B50414940F0E3
:10277000FF4940EA0108002122F020004928049185
:1027800002D04E2828D04CE03BA0012607C88DE897
:102790000700A9690698641C88477F1E014606D475
:1027A0001DF8060018B121F0200181420BD0E96923
:1027B00006988847032E34D0082E32D06FF00100DF
:1027C00009B0BDE8F08F761C032E01D0082EE0D1B1
:1027D000601CCAF80000DCE7A9690698641C8847F9
:1027E0007F1E2AD420F02000412826D1A96906980E
:1027F000641C88477F1E20D420F020004E281CD166
:10280000A9690698641C88477F1E48F4002849F48B
:102810008009CAF8004001D4282806D0E969069842
:1028200088475FEACB7012D022E0A9690698641C41
:1028300088477F1E01D4002803DAE9690698884793
:10284000BCE72928F1D1641CCAF80040E9E71BF075
:10285000240F07D028680499031D2B600068C0E985
:10286000001805E02868021D2A600068C0F8009082
:102870002046A5E70000F07F494E46494E4954598D
:10288000000000007047B2F120030AD5C2F1200316
:1028900001FA02F120FA03F300FA02F041EA03011F
:1028A000704700FA03F14FF0000070475FEA400CF8
:1028B00008BF91F0000F4FEA8C234FEAC12243EA90
:1028C00051514FEA1C5018BF00F5F0404FEA30005C
:1028D00018BF41F000415FEA6C5C00F02980BCF158
:1028E000FF3F08BF40F080407047130C06BF120442
:1028F0004FF0100C4FF0000C130E04BF12020CF13D
:10290000080C130F04BF12010CF1040C930F04BF49
:1029100092000CF1020CD30F04BF52000CF1010C19
:1029200011464FF00002A0F11F00A0EB0C00704711
:1029300011F0004F08BF704731F000413FF4D5AFB0
:102940000B0C06BF09044FF0100C4FF0000C0B0EDF
:1029500004BF09020CF1080C0B0F04BF09010CF1B4
:10296000040C8B0F04BF89000CF1020CCB0F04BFC9
:1029700049000CF1010CCCF12003A0EB0C0022FA71
:1029800003F302FA0CF241EA030100F1010070477F
:1029900020F07F4C80EA030023F07F47ACEB070375
:1029A00003F57C5300F0004003F1FF032DE980495B
:1029B0004FEA154B09B44FEA144325EA0B4E24EABB
:1029C00003480FF2042606EB132749083E785FEA16
:1029D000320203FB0667C7F5000707FB06F64FEA5E
:1029E00054374FEAD64606F1020607FB066CCCF1D7
:1029F000005C4FEA1C472CEA074C07FB06F40CFB73
:102A000006F504EB15464FEA961634BF00204FF04A
:102A100000404FEAD13706FB07FC4FEA1C4C0CFB89
:102A20000BF7D21B03FB0CF761EB07010CFB0EF756
:102A3000B0EB074072EB17420CFB08F734BFA2EB78
:102A40000742B2EB074261EB17414FEA0C444FEAF1
:102A5000910706FB07FC4FEA1C4C0CFB0BF7B0EB95
:102A6000C74072EB573203FB0CF734BFA2EBC742EF
:102A7000B2EBC74261EB57310CFB0EF7B0EBC7006E
:102A800072EB57720CFB08F734BFA2EBC702B2EB34
:102A9000C70261EB5771039F4FEA816141EA9211CE
:102AA00004EBCC044FEAD1374FEA826206FB07FC05
:102AB00042EA90124FEA80604FEA1C4C0CFB0BF785
:102AC000D21B03FB0CF761EB07010CFB0EF7B0EB1D
:102AD000074072EB17420CFB08F734BFA2EB07422A
:102AE000B2EB074261EB17414FEA8C554FEA910771
:102AF00004EB9C2406FB07FC4FEA1C4C0CFB0BF779
:102B0000B0EBC74072EB573203FB0CF734BFA2EBBC
:102B1000C742B2EBC74261EB57310CFB0EF7B0EB8B
:102B2000C70072EB57720CFB08F734BFA2EBC70269
:102B3000B2EBC70261EB577115EB4C254FEA81618F
:102B400041EA92114FEA82624FEAD13742EA90128B
:102B500006FB07FC44F100044FEA80604FEA1C4C7E
:102B60000CFB0BF7D21B03FB0CF761EB07010CFB13
:102B70000EF7B0EB074072EB17420CFB08F734BFBF
:102B8000A2EB0742B2EB074261EB174115EB1C15B4
:102B90004FEA813141EA92414FEA823242EA904261
:102BA0004FEA80304FEA0C7644F1000448EA0343D0
:102BB0004EEA0B484FF0000EB2EB080C71EB030726
:102BC00024BF624639464EEB0E0E4FF0000B001844
:102BD000524149414BEB0B0BB2EB080C71EB030775
:102BE0007BF1000B24BF624639464EEB0E0E4FF0D0
:102BF000000B0018524149414BEB0B0BB2EB080C98
:102C000071EB03077BF1000B24BF624639464EEBA4
:102C10000E0E51EA020718BF46F0010616EB0E76BB
:102C200055F1000254F1000103D5BDE88901BDE86A
:102C30000088BDE88901BDE80048B619524141EB62
:102C40000101A3F10103704780807F7E7D7C7B7A48
:102C50007978777676757473727171706F6E6E6D48
:102C60006C6C6B6A6A6968686766666564646363EE
:102C700062616160605F5F5E5E5D5D5C5C5B5B5A74
:102C80005A595958585757565655555554545353E1
:102C900052525251515050504F4F4F4E4E4D4D4D3C
:102CA0004C4C4C4B4B4B4A4A4A4949494848484787
:102CB00047474746464645454544444444434343C5
:102CC000434242424241414146EA0646A3F570531F
:102CD0004FEA164646EA42564FEAD22242EA4152AB
:102CE00010B54FEAD121A3F1010300F02FF820F035
:102CF000004000F1020C00F0004701EB00501146CB
:102D0000BCF5006F40EA070000D210BDBAF1000F19
:102D10000AD01CB503B44FF004004FF004014FF08B
:102D200000000FBCBDE810404FF00001BBF1010FE7
:102D3000B9BF04484FF0FF310348002140EA0700C3
:102D400010BD00BFFFFFEF7F0000F07F002B9C460F
:102D500030D477002BD01CB54FEA370703B44FF0BF
:102D600010004FF01001BAF1000F06D0BCF1000FB7
:102D7000DCBF40F0080040F008014FF000000FBC3D
:102D8000BDE810400BF1010BBBF1010F08BF5FEA7A
:102D9000170722BF12F1010211F101014FF00041AA
:102DA00043F1000300F0004043EA00007047F9D30C
:102DB0005708D0E746EA064613F1400F4FEA164699
:102DC0001FDD13F1200FDFBF16430A460021203319
:102DD0005B42BED0C3F1200746EA064602FA07F777
:102DE0004FEA164646EA0706C3F1200722FA03F225
:102DF00001FA07F721FA03F14FF0000342EA070254
:102E0000A7E746EA020646EA06464FEA164646EABB
:102E10000106BCBF46EA0646360C4FF000034FF0F1
:102E200000024FF0000194E72DE9804C9A4693464A
:102E300070B491E8380007C831EA400C48BF34EA62
:102E4000430C03D5FFF7A4FDFFF780FFF0BCBDE8FE
:102E5000008C2DE9804C9A46934670B491E8380076
:102E600007C831EA400C48BF34EA430C03D5FFF7EA
:102E70008FFDFFF729FFF0BCBDE8008C2DE9804CE9
:102E80009A46934670B491E8380007C810F0804F16
:102E900008BF13F0804F03D100F01AF8FFF756FF78
:102EA000F0BCBDE8008C2DE9804C9A46934670B486
:102EB00091E8380007C810F0804F08BF13F0804F2A
:102EC00003D100F005F8FFF7FFFEF0BCBDE8008C71
:102ED00020F07F4780EA030023F07F4C07EB0C03D0
:102EE000A3F57C5300F00040A3F1FE0392F0000F25
:102EF00000F0B38095F0000F00F077802DE90149D4
:102F00004FEA11404FEA144621EA004800FB06FC54
:102F100024EA064708FB06F607FB08F800FB07F75C
:102F200018EB06484CEB164C4FEA124B18EB0748CF
:102F30004FEA15464CEB174022EA0B4E0BFB06FC02
:102F400025EA06470EFB06F607FB0EFE0BFB07F70E
:102F50001EEB064E4CEB164C4FF000061EEB074ED8
:102F60004CEB174B18EB0B0840F1000018EB0E0B65
:102F700058EB000840F100008F1A4FF000013CBFF1
:102F8000C943661B14BFB5EB040C00213CBFC94309
:102F9000F61B4FEA17444EEA8E0E27EA04454FEA25
:102FA0001C4704FB07622CEA074C05FB07F70CFBE8
:102FB00005F604FB0CFC16EB074642EB174216EB3A
:102FC0000C4642EB1C421BEB060658EB0202414149
:102FD00046EA9E0601D5BDE80189B619524141EB8A
:102FE0000101A3F10103BDE801894FEA14454FEA4D
:102FF000114724EA054621EA074C05FB07F406FBC6
:1030000007F70CFB06F105FB0CFC11EB074144EB49
:1030100017444FEA124711EB0C4144EB1C4422EADF
:10302000074C05FB07F206FB07F70CFB06F605FB52
:103030000CFC16EB074642EB174216EB0C4642EB34
:103040001C456A1854F1000148BF7047B619524137
:1030500041EB0101A3F10103704795F0000F37D058
:103060004FEA11424FEA144721EA024624EA074C8C
:1030700002FB07F106FB07F70CFB06F402FB0CFC56
:1030800014EB074441EB17414FEA154714EB0C448E
:1030900041EB1C4125EA074C02FB07F506FB07F74D
:1030A0000CFB06F602FB0CFC16EB074645EB17453E
:1030B00016EB0C4645EB1C42121951F1000148BFBA
:1030C0007047B619524141EB0101A3F1010370476A
:1030D0004FEA14454FEA114724EA054621EA074C16
:1030E00005FB07F106FB07F70CFB06F24FF00006A5
:1030F00005FB0CFC12EB074241EB174112EB0C42B3
:1031000051EB1C4148BF7047921841EB0101A3F1FC
:103110000103704738B50D4C0D4D2146284600F08F
:103120006FF8012811D10B486946006805F02EF9A7
:10313000009830B1084AE0051060BFF34F8FBFF32D
:103140006F8F2146284600F01FF838BD20800020F0
:10315000706002404000002004ED00E0074A904209
:1031600001D2074801E005481038064A8B0001EA01
:10317000020101D5C1607047816070471064024050
:10318000006002407D0F7D0F074A904201D2074840
:1031900001E005481038064A8B0001EA020101D51A
:1031A000C160704781607047106402400060024057
:1031B0007D0F7D0F002904D0016841F001010160FD
:1031C0007047016821F0010101607047024600204C
:1031D000084B9A4201D2084A01E0064A103A8B0095
:1031E00001D5526800E01268044B1A400A4200D030
:1031F0000120704710640240006002407D0F7D0F87
:1032000030B500240F4A904201D20F4A01E00D4A26
:10321000103A0E4B194205D01E2303EAD12503684C
:103220002B4002E0406900F08003880001D550681F
:1032300000E01068064A1040084201D003B10124A2
:10324000204630BD10640240006002403C0F3C0F3D
:103250007D0F7D0F0B0609D522B1436943F0800332
:10326000436103E0436923F080034361802905D073
:1032700001F01E011AB102680A4302607047026839
:103280008A4302607047000030B50368124A134059
:10329000CC680A682243D1E905452C432243CC6916
:1032A00022430C6A22434C6A22438C6A22434C6BB1
:1032B00022438C6B22431A430260426922F00703C7
:1032C000D1E90B2422431A4342610A6942604A68E9
:1032D00082608968C16030BD3F801CF000210160C0
:1032E00041608160C160016141618161C1610162D0
:1032F00041628162C162016341638163704710B5BD
:10330000002001F053FDBDE810401020AFF3008015
:103310000149086070470000143C01402DE9F0416C
:10332000002201274FF0030C07FA02F50B682B402F
:10333000AB422CD1066853000CFA03F4A643066096
:103340000E79D0F800809E4046EA080606600E79A5
:10335000012E01D0022E12D18668A64386604E79D6
:10336000D0F808809E4046EA080686604668AE436C
:10337000466045688E799640B6B235434560C5686B
:10338000A543C560CC799C40C3681C43C460521CF3
:10339000102AC9D3BDE8F08110B54B07DB0E9A4067
:1033A000C90800EB8100016A0F249C40A14301621F
:1033B000016A1143016210BD090481617047816196
:1033C00070474FF6FF7101600021017141718171F9
:1033D000C1717047002A01D0816170470904816181
:1033E0007047002904D0018841F480610180704752
:1033F000018821F480610180704730B503460020C8
:103400009A8A02F0020422F010052C4308D01B8B8C
:103410001B041A4322F07F42914300D1012030BDAA
:10342000002030BD002904D0018841F48071018062
:103430007047018821F4807101807047002904D011
:10344000018841F4007101807047018821F4007106
:10345000018070477FB504460D46A08820F03F06E6
:10346000684600F0DFF802982749B0FBF1F189B215
:103470000E43A680228822F001022280234B2A6874
:103480009A4209D85200B0FBF2F080B2042800D270
:103490000420491C218423E0EB88A3F53F46FF3E2E
:1034A0000BD002EBC20303EB0212B0FBF2F080B2CE
:1034B00040F48040020506D007E002EB4202B0FB78
:1034C000F2F080B2F6E740F0010040F400404FF423
:1034D000967251434FF47A72B1FBF2F1491C218488
:1034E000A083208840F00100208020884FF6F5312D
:1034F0000840A9886A89114301432180A889298944
:10350000084320817FBD000040420F00A0860100DB
:10351000008AC0B27047002A02D041F0010101E0E8
:1035200001F0FE01018270470182704741F288314B
:103530000160002181804BF6FF72C28001814181D0
:103540004FF480418181704730B50F23C278012547
:103550000178002A1FD0154A126802F4E062C2F511
:10356000E062C2F30722C2F10404D3404278A240D1
:1035700084781C401443220101F1E02181F80024E9
:10358000007800F01F018D404009800000F1E0202C
:10359000C0F8005130BD01F01F008540480980008F
:1035A00000F1E020C0F8805130BD00000CED00E0DB
:1035B0000249084302490860704700000000FA050C
:1035C0000CED00E0014908627047000000000E4267
:1035D000054A002903D01168014311607047116842
:1035E000814311607047000030380240054A0029CD
:1035F00003D0116801431160704711688143116065
:103600007047000040380240054A002903D0116885
:1036100001431160704711688143116070470000D9
:103620004438024070B5244B196801F00C01234C5A
:1036300000291ED0661004291DD008291DD0046061
:10364000196801F0F00109091D4A545C0168E14064
:1036500041601C6804F4E054A40A145D21FA04F4E7
:1036600084601B6803F460435B0BD25CD140C16093
:1036700070BD0460E4E70660E2E70F4A121F1168BC
:10368000C1F38055116801F03F0135B1B6FBF1F18E
:103690001468C4F38814614305E0B4FBF1F11468C5
:1036A000C4F3881461431268C2F30142521C5200F1
:1036B000B1FBF2F10160C3E7083802400024F400D6
:1036C0007000002002460020510901290BD0022978
:1036D0000DD00949096802F01F02012393400B42F3
:1036E00000D001207047044974390968F3E70249A2
:1036F000091F0968EFE700007438024006490022FC
:103700000A700A70012804D0042801D1052008702D
:103710007047012008707047703802400149086006
:10372000704700003C0E4742C0F30121032907D136
:10373000074B196821F4F81206490140114319603A
:10374000034A68321168C0F30B00014311607047EF
:1037500008380240FFFCFF0F010901EB810149001D
:1037600000F00F000844C0B27047002103E0491C7C
:10377000C9B20A38C0B20A28F9D2090740EA116072
:10378000704701210170817041700021C170704744
:1037900008B5002000900E490868400615D44FF087
:1037A000FF3008608B13086800F04000009A521C3C
:1037B0000092009A9A4201D00028F4D0086840068E
:1037C00001D5012008BD002008BD012008BD000072
:1037D0000C2800400248016821F080010160704718
:1037E0000C28004010B502460C460E4801680E48F1
:1037F0000140080CE070C1F30423637001F03F0343
:10380000A370C1F342312170002A0AD1FFF7A4FF4F
:10381000E0706078FFF7A0FF6070A078FFF79CFF72
:10382000A07010BD042800403FFFFF0010B5024605
:103830000C460F4801680F480140C1F30540207055
:10384000C1F30623637001F07F03A37001F48001CC
:10385000090CE170002A0AD1FFF77EFF2070607822
:10386000FFF77AFF6070A078FFF776FFA07010BDB9
:10387000002800407F7F7F0070B504460025114E70
:10388000CA20306053203060FFF782FFA8B10D4896
:103890001C38016821F04001016001682268114371
:1038A00001600848A168143801600168A28841EAF3
:1038B00002410160FFF78EFF0125FF20306028469E
:1038C00070BD00002428004070B505460C46002657
:1038D000002D06D16078C10603D520F010000A3013
:1038E00060702DB16078FFF737FFA078FFF734FFE5
:1038F00055B1A078E17840EA01456078217800026E
:1039000040EA413005430FE0E078FFF72EFF050461
:103910006078FFF72AFF45EA0025A078FFF725FF2A
:103920000543207845EA40350E4CCA2020605320DC
:103930002060FFF72DFF88B10B480540094820386B
:103940000560FFF747FF07481C380068800604D46D
:1039500000F06EF810B1012600E00126FF20206083
:10396000304670BD242800403FFFFF002DE9F041A4
:1039700005460C4600260020244F002D06D039684D
:10398000490608D52078FFF7E7FE05E039684906C3
:1039900002D4E07000E0E07055B1A078217840EAF0
:1039A00001456078E178000240EA014005430FE0FC
:1039B0002078FFF7DAFE05046078FFF7D6FE45EAC7
:1039C0000025A078FFF7D1FE0543E07845EA0045E1
:1039D0000E4CCA201C34206053202060FFF7D8FE14
:1039E00078B10B480540094808380560FFF7F2FE3A
:1039F0003868800604D400F01BF810B1012600E0FE
:103A00000126FF2020603046BDE8F08108280040F4
:103A10007F7F7F00002101607F214160FF21816065
:103A200070470021C17001704170817070470000C3
:103A300018B500200090104BCA2018605320186061
:103A40000D491839086820F0A00008604FF40034D0
:103A5000086800F02000009A521C0092009AA242CE
:103A600001D00028F4D00868800601D5012000E0CC
:103A70000020FF21196018BD24280040002904D02F
:103A8000018841F0400101807047018821F0400128
:103A900001807047028822F40062028002880A4393
:103AA00002807047002A03D082880A4382807047D0
:103AB00082888A43828070470246002012890A4227
:103AC00000D0012070478181704730B5028802F430
:103AD00041530A884C88CD8822438C882C4322434A
:103AE0000C8922434C8922438C892243CC8922436E
:103AF0001A430280828B22F400628283098A018247
:103B000030BD0021018041808180C18001814181DF
:103B10008181C18107210182704700000CB500221C
:103B2000019200922749086840F4803008604FF401
:103B3000A043086800F4003000900198401C0190F8
:103B4000009810B901989842F3D10868800302D513
:103B50000120009000E000920098012831D119481E
:103B60004030026842F0805202601748026842F416
:103B7000404202601348083002680260026842F462
:103B800000420260026842F4A0520260021F0F4B22
:103B900013600A6842F080720A600A689201FCD5DC
:103BA0000B4A40F205711160016821F003010160C8
:103BB000016841F0020101600168C1F3810102293D
:103BC000FAD10CBD00380240007000400854400794
:103BD000003C024010B5502080F31188BFF34F8F96
:103BE000BFF36F8F04F0B8FE18B104494FF0805056
:103BF0000860002080F3118810BD000004ED00E093
:103C000010B51248016841F4700101601048016864
:103C100041F0010101600E4A002108321160026882
:103C20000C4B1A400260031D0B4A1A60026822F412
:103C30008022026006480C300160FFF76FFF0349E5
:103C40004FF000608039086010BD000088ED00E092
:103C500000380240FFFFF6FE1030002410B50B4C78
:103C60000121204600F027F801280ED1012120462D
:103C700000F010F80648016801F57A7101604068AB
:103C8000002802D0BDE81040004710BD00100040E1
:103C900054000020C94301827047002904D00188E4
:103CA00041F0010101807047018821F0010101808C
:103CB0007047406A704702460020138A0B40928981
:103CC0000A40002B02D0002A00D001207047002AB1
:103CD00003D082890A438281704782898A43828124
:103CE0007047000030B50288164C174DA0420DD029
:103CF000A8420BD0B0F1804F08D0144B984205D0A9
:103D0000134B984202D0134B984203D122F0700318
:103D10004A881A43104B984206D0104B984203D061
:103D200022F440730A891A4302804A68C2620A88F0
:103D30000285A04201D0A84201D1897A01860121E1
:103D4000818230BD000001400004014000040040B9
:103D500000080040000C004000100040001400402B
:103D60004FF0FF314160002101800181418081726B
:103D70007047000010B50A4C40F22551204600F073
:103D800080F801280AD1204600F014F9C0B2054994
:103D90000968002902D0BDE81040084710BD0000A6
:103DA0000010014034000020F8B51D4F40F22556A8
:103DB0003146384600F065F8012830D1194C40F200
:103DC000FF31A068884224D2384600F0F3F8A26898
:103DD0000146154D501CA060A954291811F8011C6A
:103DE0000A2916D100212954606801F01DFB68B131
:103DF00020706946E06804F0C9FA009830B10B49B8
:103E0000B8040860BFF34F8FBFF36F8FA0682844DA
:103E1000606031463846BDE8F84000F00DB8F8BDA6
:103E20000044004044000020F82C002004ED00E095
:103E30008A05C9430180704740F66A120A0A0121C7
:103E40009140C94301807047002904D0818941F421
:103E5000005181817047818921F40051818170472F
:103E6000002A03D0828A0A4382827047828A8A4368
:103E7000828270470246002012880A4200D0012048
:103E8000704770B5002440F66A12C1F3421301F086
:103E90001F05012606FA05F2012B0CD0022B0DD0CE
:103EA000838A1340090A8E40008830400BB100B16C
:103EB0000124204670BD83891340F3E7038A134031
:103EC000F0E710B540F66A13C1F3421301F01F0486
:103ED0000121A140012B07D0022B07D014303AB1A9
:103EE00002680A43026010BD0C30F8E71030F6E7B4
:103EF00002688A43026010BD7FB504460D46208AE1
:103F000020F44051E88808432082A08941F20C61E6
:103F10008843A9882A8911436A8902431143A181F0
:103F2000A08A20F44071A8890843A0826846FFF760
:103F300079FB1E48844202D01D48844201D1039877
:103F400000E00298A189090408D500EBC00101EB4B
:103F5000001029684900B0FBF1F007E000EBC00158
:103F600001EB001029688900B0FBF1F06422B0FB7E
:103F7000F2F109010B096FF018056B4300EB8300A8
:103F8000A3891D044FF0320307D503EBC000B0FB3B
:103F9000F2F000F00700084306E003EB0010B0FB6E
:103FA000F2F000F00F00084320817FBD00100140B7
:103FB000001401408088C0F3080070474FF4165188
:103FC000016000218180C18001810C2242818181B8
:103FD000704703B401984100009850EAC12018BF0F
:103FE00004204A0D18BF40F0010040F2FF72B2EB0E
:103FF000515F08BF40F00200012808BF052002B051
:10400000704700000000000030B52DED048B81B03A
:10401000B0EE408AF0EE608A6A4651EC180B00F070
:10402000C3FD00989FED329B7E300090002821DC7C
:1040300053EC192B51EC180B04F062FF1AD000213D
:1040400040F608004FF00000044651EC180B04F055
:1040500011FF08EE100A40F6080004EA00014FF0D4
:104060000000B5EEC08AF1EE10FA04BF0220FCF7A2
:1040700027FE2DE00098FF2830DB002108464FF096
:10408000000000F4400553EC192B51EC180B05F01F
:10409000ADF88CBF002401240220FCF711FE9FED37
:1040A000168A4DB1002C0CBF4FF400004FF4800075
:1040B000A84218BF9FED118A042108464FF0000066
:1040C000002C01BFB1EE480A01B0BDEC048B30BD3D
:1040D000B0EE480A01B0BDEC048B30BD51EC180BBA
:1040E00004F0C8FE01B000EE100ABDEC048B30BD38
:1040F00000000000000000000000807FFFFF7F7FC5
:1041000030B583B00446FCF7D6FD9FED090B05469C
:104110008DED000B002221466846FDF721FA284666
:10412000FCF7CEFD9DED000B03B030BD000000009C
:10413000000000000000000030B540F2FF742DEDDB
:10414000048BF0EE608A18EE901A85B0B0EE408ACB
:104150009FED2B9B05468DED008B34EA115147D026
:1041600053EC192B51EC180B04F0CAFE40D02A4630
:1041700051EC180B05F024F941EC180B18EE900ADD
:104180008DED008B34EA10501CD053EC192B51EC00
:10419000180B04F0B5FE2BD10220FCF791FD00F0C6
:1041A00043F810EE901A18EE900A8DED020B8DED8B
:1041B000008B61F31E0003909DED020B05B0BDEC7A
:1041C000048B30BD0220FCF77BFD00F01DF810EEE3
:1041D000901A18EE900A8DED020B8DED008B61F3B5
:1041E0001E0003909DED020B05B0BDEC048B30BDAD
:1041F00005B0B0EE480AF0EE680ABDEC048B30BDA5
:1042000000000000000000009FED050B10B553EC0E
:10421000102B51EC100B04F0EBFE41EC100B10BD19
:1042200000000000000000709FED050B10B553EC7E
:10423000102B51EC100B04F0DBFE41EC100B10BD09
:10424000000000000000001010B5044691ED000BC6
:10425000FFF7DAFE84ED000A10BD10B5044690EDBC
:10426000000B0846FFF768FF84ED000B10BD3038E7
:104270000A2801D201207047002070471CB504466F
:1042800001A8FFF77EFA6846FFF7CBFB01A90020E3
:10429000FFF7A8FA69460020FFF7C8FA9DF8070063
:1042A00000F5FA6020809DF80500A0709DF80600DA
:1042B000E0709DF80400E0719DF8000020719DF809
:1042C000010060719DF80200A0711CBD1CB5044680
:1042D00001A8FFF756FA6846FFF7A3FB2078A0F580
:1042E000FA608DF80700A0788DF80500E0788DF869
:1042F0000600E0798DF8040020798DF800006079DF
:104300008DF80100A0798DF8020001A90020FFF7C7
:10431000DBFA69460020FFF729FB1CBD30B587B0EA
:1043200005A8FFF74EF802208DF8180001208DF83F
:104330001A0000248DF81B4003208DF8190080021C
:104340000590234D05A92846FEF7E8FF04220A211F
:104350002846FFF721F804220B212846FFF71CF816
:1043600001A8FFF7E3F82815ADF80E000001ADF83D
:104370001000184801904BF6FF70ADF80A00ADF838
:104380000840ADF80C4001A91348FFF763F8282056
:1043900003F072F800F02FF810B1012007B030BD23
:1043A0000EA0006800900321684600F011F940B1AA
:1043B0000024012003F060F800F01DF818B101207E
:1043C000ECE70020EAE7641C642CF2D30020E5E768
:1043D00000040240A086010000580040BE08000012
:1043E00008B5684600F0C4F818B19DF80000C0098F
:1043F00008BD002008BD08B5684600F0B9F820B136
:104400009DF80000C0F3C00008BD002008BD0000FA
:104410002DE9F04782468846304C01212046FEF7C0
:10442000E0FF01212046FEF7FDFF4FF47A794E466A
:104430002B4D04E00A20002102F0CAFB0A3E294667
:104440002046FEF7DAFF08B9002EF3D14EB126461A
:10445000012270213046FFF75EF84F46204C641C65
:1044600007E00020BDE8F0870A20002102F0B0FB41
:104470000A3F21463046FEF7C0FF08B9002FF3D1AE
:104480000FB1002520E00020ECE7A8F101008542F3
:1044900003D100213046FEF7A4FF4C46104F3F37B2
:1044A00004E00A20002102F093FB0A3C3946304622
:1044B000FEF7A3FF08B9002CF3D16CB13046FFF72B
:1044C00027F80AF805006D1C4545DED3012130466A
:1044D000FEF7B4FF0120C5E70020C3E70058004005
:1044E000010003007CB504460D4606216846FFF72F
:1044F0008FFF88B39DF801009DF8021000039DF81E
:10450000032040EA011040EA121310079DF804103E
:10451000000B40EA01229DF80500024300EE103A2C
:10452000DFED0F0AB8EE400A20EE200ADFED0D0A9B
:1045300020EE200A85ED000A00EE102A9FED0A1AEF
:10454000B8EE400A20EE011A9FED080A11EE200A8B
:1045500084ED000A01207CBDFFE70020FBE700009E
:104560000000C84200008035000048430000484277
:1045700038B50446712000900121684600F028F803
:1045800030B101212046FFF743FF18B1012038BDAB
:10459000002038BD002038BD08B504A00068009098
:1045A0000321684600F014F808BD0000AC33000099
:1045B00010B50024012002F05FFFFFF711FF20B1CA
:1045C000641CC82CF6D3002010BD012010BD0000D3
:1045D0002DE9F04706460F46DFF8B080012140463E
:1045E000FEF7FFFE01214046FEF71CFF4FF47A79EB
:1045F0004D46274C04E00A20002102F0E9FA0A3D6A
:1046000021464046FEF7F9FE08B9002DF3D13DB131
:10461000002270214046FEF77EFF4D461D4C07E00C
:104620000020BDE8F0870A20002102F0D1FA0A3DFF
:1046300021464046FEF7E1FE08B9002DF3D12DB129
:104640000025DFF850A0AAF1020A15E00020E8E7F3
:10465000715D4046FEF768FF4C4604E00A200021E9
:1046600002F0B6FA0A3C51464046FEF7C6FE08B9CB
:10467000002CF3D144B16D1CBD42E9D30121404669
:10468000FEF7DCFE0120CCE70020CAE7005800401E
:10469000010003008200070010B501F02BFEBDE809
:1046A000104000470047000010B502F0A1FC06A230
:1046B00008A10BA002F0E6FC01F062FE02F04CFA49
:1046C000BDE81040FFF72ABE31393A32363A343568
:1046D000000000004665622020342032303236006F
:1046E0005B5359535D204275696C64204461746565
:1046F0003A2025732025730A0000000070B50121BF
:104700000846FEF765FF01210220FEF761FF012147
:104710000420FEF75DFF01210820FEF759FF01216B
:104720001020FEF755FF01211020FEF76DFF01213B
:104730004804FEF75BFF01218C032046FEF764FF6F
:1047400001211020FEF752FF01218D052846FEF7BA
:104750004DFF01212046FEF749FF01211020FEF701
:1047600045FF01210807FEF741FF01214805FEF73B
:104770002FFF01212846FEF72BFF0120FEF722FF25
:104780000120FEF7BBFF4120FEF79CFF0028FAD076
:10479000BDE870404FF48070FEF7C6BF38B51546CF
:1047A000002818D0B9B10D4C034600910CA24FF46B
:1047B00080612046FBF728FE35B1C0F580612044BA
:1047C0002B460DA2FBF720FE2046BDE8384041F203
:1047D000883100F0DBB9002038BD0000F82C002043
:1047E00041542B43574A41503D222573222C222508
:1047F00073220D0A000000002C222573220D0A00EE
:1048000000B58FB06846FEF769FD4FF0006000907C
:104810004020039004200B9003200C904FF08070F8
:104820000D9000200E9008904FF480610691099041
:1048300006490191079005904FF480300A9069462F
:104840000348FEF721FD0FB000BD00000444004006
:10485000A060024000487047F82C002070B5044664
:104860004FF4FA6529460FA000F090F990B1FFF7D8
:10487000F1FF214600F0E8FE70B129460DA000F0DE
:1048800085F958B1FFF7E6FF214600F0ADFE38B1DB
:10489000012070BD002070BD002070BD002070BDE3
:1048A000002070BD41542B435753544154453F0D94
:1048B0000A00000041542B43574A41503F0D0A0063
:1048C00010B50A4C03460AA24FF480612046FBF75C
:1048D0009BFD41F28831204600F058F918B1BDE83F
:1048E0001040FFF7B7BF002010BD0000F82C0020DB
:1048F00041542B48545450434C49454E543D322C5E
:10490000312C222573222C2C2C320D0A00000000A1
:1049100010B503220021012003F064FB1049C86098
:1049200018B98A210FA002F053FC00F067F840F696
:10493000B83000F0FFF860B14FF4FA6110A000F059
:1049400025F940B141F2883000F008F928B1012082
:1049500010BD002010BD002010BD002010BD0000C3
:10496000440000202E2E5C6472697665725C65736B
:10497000705F61745C6573705F61742E630000002A
:1049800041542B524553544F52450D0A000000002C
:1049900008B50020009026218DF8001001218DF827
:1049A000031005218DF801108DF802006846FEF70E
:1049B000CBFD02495020087008BD000026E400E04D
:1049C0001CB50D4C072202212046FEF7E5FC07220C
:1049D00003212046FEF7E0FC6846FEF7F2FC0221C8
:1049E0008DF804100C2200928DF8051069462046BF
:1049F000FEF794FC1CBD00000000024010B500F062
:104A00003DF8FFF7FDFEFFF7C3FFBDE81040FFF7DD
:104A1000D7BF000010B504464FF4FA6107A000F0BC
:104A2000B5F838B1FFF716FF214600F099FD18B12F
:104A3000012010BD002010BD002010BD41542B43AB
:104A40004950534E545054494D453F0D0A00000003
:104A500010B54FF4FA6104A000F098F808B10120F5
:104A600010BD002010BD000041542B434950534E4F
:104A700054504346473D312C380D0A001FB5684657
:104A8000FFF79CFA4FF4E13000900020ADF80C00E5
:104A90000C21ADF80A10ADF80800ADF80600ADF82D
:104AA00004000A4C69462046FFF726FA012240F22C
:104AB00025512046FFF705FA012280212046FFF705
:104AC000CFF901212046FFF7BFF91FBD0044004088
:104AD00010B50A4C0021A160094961604FF47A7158
:104AE0004843B0FBF1F1E06803F05AFD012800D023
:104AF000002008B1207810BD002010BD4400002027
:104B0000F82C002010B504462046FBF77FFF07492C
:104B10008C600860054C0649241F2046FEF71EFBEA
:104B20002046BDE810400121FEF744BBA4600240CE
:104B30000000202070B50546002407E0642105A090
:104B400000F024F808B1012070BD6434AC42F5D304
:104B5000002070BD41540D0A0000000010B5FFF7A1
:104B6000B7FF042801D0002010BD012010BD0000B7
:104B70004FF4FA6101A000F009B8000041542B4342
:104B8000574D4F44453D310D0A00000010B50C460D
:104B9000FFF7B8FF2046FFF79BFF012800D0002059
:104BA00010BD00000000000010B582B01446CDE931
:104BB00000010023009A2360194B21F00040984225
:104BC0002ADA024328D0B0F5801FA8BF226810DA85
:104BD0009FED150B53EC102B9DED000B51EC100BC2
:104BE00004F006FACDE900016FF0350221F0004033
:104BF00022600F4B6FF31E5103EB205010442060D6
:104C000041F0FF5040F0005001909DED000B00BFBF
:104C100002B051EC100B10BD9DED000BF8E7000049
:104C20000000F07F00000000000000000000504382
:104C300002FCFFFF30B52DED028B85B000202E4C1D
:104C40000346009040F6B8320421A06904F09CF8B5
:104C5000FFF7A2FCE8B3FFF7ABFC002844D09FEDC0
:104C6000270A8DED040A8DED030A03A904A8FFF7B6
:104C700039FC00283CD09DED048A94ED000AB4EE86
:104C8000408AF1EE10FA08D19DED030AD4ED010A35
:104C9000B4EE600AF1EE10FA1ED084ED008A03989B
:104CA000606004F0D9FA04460D4618EE100A04F0CC
:104CB000D3FA41EC100B12A053EC102BCDE90045B8
:104CC00002F0E0F99DED040A00F096FA9DED030A6A
:104CD00000E005E000F066FA05B0BDEC028B30BDE7
:104CE00012A002F0CFF9F7E719A002F0CBF9F3E731
:104CF00021A002F0C7F9EFE700000020000000004B
:104D00005B41485432305D2054656D70657261744A
:104D10007572653A20252E31662C2048756D6964C0
:104D20006974793A20252E31660A00005B414854A7
:104D300032305D207374617274206D6561737572B9
:104D4000656D656E74206661696C65640A000000BB
:104D50005B41485432305D207761697420666F7220
:104D6000206D6561737572656D656E74206661692D
:104D70006C65640A000000005B41485432305D20DD
:104D800072656164206D6561737572656D656E74C1
:104D9000206661696C65640A00000000A13856282D
:104DA00001D80120704700207047000070B580F0E6
:104DB000010422464FF400710748FEF70BFB074D34
:104DC000224602212846FEF705FB22462846BDE87A
:104DD00070400121FEF7FEBA0010024000040240BC
:104DE0001CB5FFF78BFC03F017F800200A21CDE972
:104DF000001003464FF4806203A1064803F0DCFC78
:104E000002F094FCFEE700006D61696E5F696E69F7
:104E100074000000194E000810B5FFF745FC02F0C1
:104E200053F802F035FD02F079FD02F0F3FD02F0D7
:104E3000DBFE00F0ABF800F005F8BDE81040002004
:104E400002F04EBB38B537480090374B00220121A5
:104E500036A003F04BFF384CE060384D384B012250
:104E600041F2883137A0009503F040FF2061384BB4
:104E700001224FF47A7137A0009503F037FF60618B
:104E8000374B012240F6B83136A0009503F02EFFD3
:104E9000A061384B01224EF6602137A0009503F047
:104EA00025FFE0612049384802F0EAFF24493648EE
:104EB00002F0E6FF2A49344802F0E2FF2D49324869
:104EC00002F0DEFF03F042FD0025024600952B466E
:104ED0000121E06803F058FF03F038FD0246009519
:104EE00000230121206903F04FFF03F02FFD02464C
:104EF000009500230121606903F046FF03F026FDC1
:104F00000246009500230121A06903F03DFF03F054
:104F10001DFD0246009500230121E06903F034FFE6
:104F200038BD000099460008296C000874696D6559
:104F30002073796E6300000000000020017E0008ED
:104F4000BD7A0008776966692075706461746500D0
:104F5000796D000874696D65207570646174650011
:104F6000354C0008696E6E657220757064617465F9
:104F7000000000008D5400086F7574646F6F72201C
:104F80007570646174650000A546000870B52DED6C
:104F9000028B82B0002040F23F13EF2201460090C6
:104FA00001F02AFF4FF6DF740F219A23E022084612
:104FB000009401F021FF384A1421172001F006FF68
:104FC00036A000F015FA37480023CDE9004036A29C
:104FD0002A21192001F09EFF354848F67143CDE99A
:104FE000004034A27921232001F094FF48F6DD64CB
:104FF0004FF4987633467222A5210F20009401F0D9
:10500000FBFE31480023CDE9004030A2AA21132045
:1050100001F080FF304D002330A2BF215620CDE9A2
:10502000004501F077FF00232DA24FF483715B2030
:10503000CDE9004501F06EFF9FED2A8AB0EE480AE7
:1050400000F0DAF8B0EE480A00F0ACF84FF6294468
:105050003346E022A5217D20009401F0CDFE0023FF
:105060001EA2BD21C020CDE9004501F053FF1E4A1C
:10507000EF218B2001F0AAFE1CA000F0EFF8B0EEAB
:10508000480A00F005F902B04FF0FF30BDEC028B8A
:10509000BDE8704000F02EB99CA9010872697665E0
:1050A00072000000644101082D2D3A2D2D000000F2
:1050B00010AF00082D2D2D2D2F2D2D2F2D2D20D073
:1050C000C7C6DACBC400000060E70008CAD2C4DA61
:1050D000BBB7BEB300000000E8E2000843000000D8
:1050E000250000009AF9794414A50108B1B1BEA9C0
:1050F0000000000000B589B0C179012925D002293E
:1051000025D0032925D0042925D0052925D0062915
:1051100025D0072925D014A1C2788378CDE90032A3
:105120000291038811A2122104A8FBF76DF915481A
:105130004FF6DF71CDE9001048F6714304AA7921DA
:10514000232001F0E7FE09B000BD0FA1E4E70FA1A5
:10515000E2E70FA1E0E70FA1DEE70FA1DCE70FA177
:10516000DAE70FA1D8E700005800000025303475B9
:105170002F253032752F2530327520D0C7C6DA255D
:105180007300000010AF0008D2BB0000B6FE0000A4
:10519000C8FD0000CBC40000CEE50000C1F900004E
:1051A000CCEC00000EB5B5EEC00AF1EE10FA0FDD42
:1051B00010EE100A0C4988420ADC10EE100A04F0C6
:1051C0004BF8CDE9000109A2032102A8FBF71CF965
:1051D000084848F6DD61CDE90010002302AAEF215E
:1051E000192001F097FE0EBDE1FAC74225322E309C
:1051F00066000000401901080EB5124800680290D0
:1052000010EE100A104988420FD210EE100A0F4912
:1052100088420ADC10EE100A04F01EF8CDE9000105
:105220000BA2032102A8FBF7EFF80B4848F6DD615B
:10523000CDE90010002302AAC0211E2001F06AFE61
:105240000EBD0000B4E80308000020C10000C84201
:1052500025322E306600000030FE000800B585B013
:10526000034609A2092102A8FBF7CEF807484FF62A
:105270002941CDE90010002302AAAA217F2001F0D4
:1052800049FE05B000BD00002573000060E700087E
:105290000EB512484068029010EE100A104988427C
:1052A0000FD210EE100A0F4988420ADC10EE100AE5
:1052B00003F0D2FFCDE900010BA2032102A8FBF706
:1052C000A3F80B484FF62941CDE90010002302AAAC
:1052D000BE21872001F01EFE0EBD0000B4E80308C9
:1052E000000020C10000C84225322E3066000000B8
:1052F00030FE0008002838D0022836D0262834D0C6
:10530000012834D0032832D0042832D0092830D0E4
:10531000052830D006282ED007282CD008282AD0DF
:105320000A282AD00D2828D00E2826D00F2824D0CD
:10533000102822D0112820D012281ED013281CD0CB
:105340000B281CD00C281AD014281AD0152818D0D5
:10535000162816D0172814D0182812D0192810D0C3
:10536000094AF021A62001F031BD084AF9E7084AB0
:10537000F7E7084AF5E7084AF3E7084AF1E7084A79
:10538000EFE7084AEDE70000DC850108AC9C010866
:105390003CD701086CC001083C580108DC04020835
:1053A0000C6F01080CEE01081FB58179C90715D0F3
:1053B00020214279CDE90012037909A2062102A831
:1053C000FBF722F809484FF6DF71CDE90010002302
:1053D00002AA2A21192001F09DFD1FBD3A21E8E70C
:1053E000253032752563253032750000644101088F
:1053F00000B589B0034609A2152103A8FBF704F8FC
:1054000008484FF6DF71CDE9001048F6714303AA52
:105410001721322001F07EFD09B000BD2532307326
:1054200000000000489A000870B506460024084DA8
:1054300005EBC40041683046FBF7FAFB20B1641C61
:10544000042CF5D3002070BD15F8340070BD0000A9
:10545000BCE8030870B58CB0064630220A4968469D
:10546000FBF738FB00246D46314655F82400FBF766
:10547000DFFB30B1641CE4B20C2CF5D300200CB07F
:1054800070BD601CFBE70000F8E8030800B5B1B090
:105490000020034600901D484EF660220421C0699A
:1054A00003F072FCB82103A8FBF770FB1848FFF764
:1054B00007FA18B303A900F0F5F818B3B82203A946
:1054C0001448FBF753FA002816D0B82203A9114854
:1054D000FBF700FB309803F0BFFECDE900012BAADB
:1054E00003A90DA001F0CEFD9DED300AFFF7D0FE1F
:1054F0009DF8BC00FFF7FEFE31B000BD0CA001F02E
:10550000C1FDF9E710A001F0BDFDF5E700000020A6
:1055100028EA0308600100205B5745415448455282
:105520005D2025732C2025732C20252E31660A0042
:105530005B574541544845525D206874747020653E
:1055400072726F720A0000005B5745415448455221
:105550005D207061727365206661696C65640A0024
:1055600010B588B00C4610A1FBF7EEF9A11DCDE9EE
:105570000314621D231DCDE90132E11C009107AB2C
:1055800006AA0DA1FBF7ACF8072802D0002008B04E
:1055900010BD07A8FFF75EFFA07006A802F05CF937
:1055A000E0710120F3E700002B434950534E545063
:1055B00054494D453A0000002B434950534E545036
:1055C00054494D453A2533732025337320256868A7
:1055D0007520256868753A256868753A2568687584
:1055E00020256875000000001CB50C460BA1FBF7D8
:1055F000ABF970B104F158010A1FCDE9002104F1A3
:105600004003224607A1FBF76BF8042803D00020D3
:105610001CBD00201CBD01201CBD00002B43574AAF
:1056200041503A002B43574A41503A222536335BCA
:105630005E225D222C222531375B5E225D222C25E5
:10564000642C25640000000038B50C460CA1FBF763
:105650007BF940B123466A460CA1FBF741F80228CA
:1056600003D0002038BD002038BD0098022804D0A7
:10567000002084F85C00012038BD0120F9E700001B
:105680002B435753544154453A0000002B43575382
:10569000544154453A25642C222536335B5E225D05
:1056A000000000007FB50C462FA1FBF74DF9002844
:1056B00048D030A1FBF748F9002846D030A1FBF7CD
:1056C00043F9054625B122462FA12846FBF708F8E5
:1056D00032A12846FBF738F905462DB104F1200226
:1056E00030A12846FAF7FCFF33A12846FBF72CF936
:1056F00000282CD032A1FBF727F905462DB104F183
:10570000A00231A12846FAF7EBFF34A12846FBF7A7
:105710001BF905462DB194F8B02032A12846FAF7BE
:10572000DFFF0023009301930293039331A12846E6
:10573000FBF70AF9B0B16A4632A1FAF7D1FF0128A6
:1057400007D00FE0002004B070BD0020FBE7002070
:10575000F9E76846FEF7D4FC51EC100B03F08AFB26
:10576000C4F8B4000120EEE722726573756C74739F
:10577000223A0000226C6F636174696F6E223A00F6
:10578000226E616D65223A00226E616D65223A20BB
:10579000222533315B5E225D22000000227061749D
:1057A00068223A002270617468223A202225313240
:1057B000385B5E225D220000226E6F77223A000085
:1057C0002274657874223A002274657874223A2033
:1057D000222531355B5E225D2200000022636F646A
:1057E00065223A002274657874223A2022256422C8
:1057F000000000002274656D7065726174757265D9
:10580000223A00002274656D70657261747572656C
:10581000223A20222531355B5E225D220000000005
:105820002DE9F04104460F46174EF5683068001D1B
:1058300001F09BFC38B9306890F82C1001208840AA
:10584000316981433161601C07D137B13168BDE8EE
:10585000F041091D0D4801F0E2BC2C443068446061
:10586000AC4206D23168F06B091DBDE8F04101F091
:10587000BEBC3168B06B091D01F0B9FCB06A84424E
:1058800000D2B462BDE8F081AC00002060A201202B
:1058900070B5044601F0D0FC1C4DA868401CA860FF
:1058A000286810B1686938B10CE02C60A86801283C
:1058B00008D100F0D1F905E02868E16AC06A8842A1
:1058C00000D82C60686A401C6862E06A01212A697D
:1058D0008140114329610E4900EB800001EB8000FB
:1058E000211D01F09CFC01F0D7FC686900280CD058
:1058F0002868E16AC06A884207D206494FF08050A2
:105900000860BFF34F8FBFF36F8F70BDAC000020F6
:1059100048A1012004ED00E010B501F08DFC0E4C13
:105920002068A0B90D4801F054FC0C48143001F077
:1059300050FC0A48E0601430206100221021202031
:1059400002F050FB206010B105A101F05FFDBDE841
:10595000104001F0A1BC0000EC00002074A2012066
:10596000546D72510000000070B50C4D0C4E11E0EA
:1059700001F062FCF068C468201D01F0F6FBA86825
:10598000401EA8606868401E686001F085FC2046E3
:1059900000F053F868680028EAD170BDAC00002020
:1059A0004CA2012030B40B46026C002A0CD0C16816
:1059B0001144C1608468A14201D30168C160C1681B
:1059C00030BC1846FBF741B830BC70472DE9F041B8
:1059D000044617460026A56B226C002A10D0C7B1DA
:1059E000E068FBF732F8E168206C091AE160226890
:1059F000914202D2A168081AE060022F16D017E087
:105A00002068A8B9A06803F01BF806460020A06033
:105A10000EE06068FBF719F8216C6068084460606C
:105A2000A168884204D32068606001E005B16D1E62
:105A30006D1CA5633046BDE8F08110B50446206BAF
:105A400001F052FC2046BDE8104001F04DBC416A17
:105A5000002904D0006B0068C0F10A0070470020E4
:105A6000704700000749CA681168002904D0002166
:105A7000016019B1002070470121F9E7D068006882
:105A800070470000EC0000204FF4B8310F48420787
:105A900006D0C01D20F007000C49411AC1F5B831ED
:105AA0000B4A1060002353600144083921F00701BC
:105AB000183A11604B600B600B1A4360016040683C
:105AC000906050604FF0004050617047F830002007
:105AD00098000020074E4FF08054074DFFF744FF19
